{
  "_format": "hh-sol-artifact-1",
  "contractName": "LiquidityPoolManager",
  "sourceName": "contracts/LiquidityPoolManager.sol",
  "abi": [
    {
      "inputs": [
        {
          "internalType": "address",
          "name": "_bitusdt",
          "type": "address"
        },
        {
          "internalType": "address",
          "name": "_lpusdt",
          "type": "address"
        },
        {
          "internalType": "address",
          "name": "ownerAddress",
          "type": "address"
        }
      ],
      "stateMutability": "nonpayable",
      "type": "constructor"
    },
    {
      "inputs": [
        {
          "internalType": "address",
          "name": "owner",
          "type": "address"
        }
      ],
      "name": "OwnableInvalidOwner",
      "type": "error"
    },
    {
      "inputs": [
        {
          "internalType": "address",
          "name": "account",
          "type": "address"
        }
      ],
      "name": "OwnableUnauthorizedAccount",
      "type": "error"
    },
    {
      "anonymous": false,
      "inputs": [
        {
          "indexed": true,
          "internalType": "address",
          "name": "previousOwner",
          "type": "address"
        },
        {
          "indexed": true,
          "internalType": "address",
          "name": "newOwner",
          "type": "address"
        }
      ],
      "name": "OwnershipTransferred",
      "type": "event"
    },
    {
      "inputs": [
        {
          "internalType": "uint256",
          "name": "amount",
          "type": "uint256"
        }
      ],
      "name": "addLiquidez",
      "outputs": [],
      "stateMutability": "nonpayable",
      "type": "function"
    },
    {
      "inputs": [],
      "name": "bitusdt",
      "outputs": [
        {
          "internalType": "contract BITUSDT",
          "name": "",
          "type": "address"
        }
      ],
      "stateMutability": "view",
      "type": "function"
    },
    {
      "inputs": [],
      "name": "lpusdt",
      "outputs": [
        {
          "internalType": "contract LPUSDT",
          "name": "",
          "type": "address"
        }
      ],
      "stateMutability": "view",
      "type": "function"
    },
    {
      "inputs": [],
      "name": "owner",
      "outputs": [
        {
          "internalType": "address",
          "name": "",
          "type": "address"
        }
      ],
      "stateMutability": "view",
      "type": "function"
    },
    {
      "inputs": [
        {
          "internalType": "uint256",
          "name": "amount",
          "type": "uint256"
        }
      ],
      "name": "removeLiquidez",
      "outputs": [],
      "stateMutability": "nonpayable",
      "type": "function"
    },
    {
      "inputs": [],
      "name": "renounceOwnership",
      "outputs": [],
      "stateMutability": "nonpayable",
      "type": "function"
    },
    {
      "inputs": [
        {
          "internalType": "address",
          "name": "newOwner",
          "type": "address"
        }
      ],
      "name": "transferOwnership",
      "outputs": [],
      "stateMutability": "nonpayable",
      "type": "function"
    }
  ],
  "bytecode": "0x60806040523480156200001157600080fd5b5060405162000dea38038062000dea833981810160405281019062000037919062000278565b80600073ffffffffffffffffffffffffffffffffffffffff168173ffffffffffffffffffffffffffffffffffffffff1603620000ad5760006040517f1e4fbdf7000000000000000000000000000000000000000000000000000000008152600401620000a49190620002e5565b60405180910390fd5b620000be816200014a60201b60201c565b5082600160006101000a81548173ffffffffffffffffffffffffffffffffffffffff021916908373ffffffffffffffffffffffffffffffffffffffff16021790555081600260006101000a81548173ffffffffffffffffffffffffffffffffffffffff021916908373ffffffffffffffffffffffffffffffffffffffff16021790555050505062000302565b60008060009054906101000a900473ffffffffffffffffffffffffffffffffffffffff169050816000806101000a81548173ffffffffffffffffffffffffffffffffffffffff021916908373ffffffffffffffffffffffffffffffffffffffff1602179055508173ffffffffffffffffffffffffffffffffffffffff168173ffffffffffffffffffffffffffffffffffffffff167f8be0079c531659141344cd1fd0a4f28419497f9722a3daafe3b4186f6b6457e060405160405180910390a35050565b600080fd5b600073ffffffffffffffffffffffffffffffffffffffff82169050919050565b6000620002408262000213565b9050919050565b620002528162000233565b81146200025e57600080fd5b50565b600081519050620002728162000247565b92915050565b6000806000606084860312156200029457620002936200020e565b5b6000620002a48682870162000261565b9350506020620002b78682870162000261565b9250506040620002ca8682870162000261565b9150509250925092565b620002df8162000233565b82525050565b6000602082019050620002fc6000830184620002d4565b92915050565b610ad880620003126000396000f3fe608060405234801561001057600080fd5b506004361061007d5760003560e01c80638da5cb5b1161005b5780638da5cb5b146100c6578063dd2041e7146100e4578063eecf2e3014610102578063f2fde38b1461011e5761007d565b80630d2e9c9a14610082578063715018a61461009e5780637a9785e8146100a8575b600080fd5b61009c6004803603810190610097919061074d565b61013a565b005b6100a66102f6565b005b6100b061030a565b6040516100bd91906107f9565b60405180910390f35b6100ce610330565b6040516100db9190610835565b60405180910390f35b6100ec610359565b6040516100f99190610871565b60405180910390f35b61011c6004803603810190610117919061074d565b61037f565b005b610138600480360381019061013391906108b8565b610539565b005b6000811161017d576040517f08c379a000000000000000000000000000000000000000000000000000000000815260040161017490610942565b60405180910390fd5b6000600160009054906101000a900473ffffffffffffffffffffffffffffffffffffffff1673ffffffffffffffffffffffffffffffffffffffff166323b872dd3330856040518463ffffffff1660e01b81526004016101de93929190610971565b6020604051808303816000875af11580156101fd573d6000803e3d6000fd5b505050506040513d601f19601f8201168201806040525081019061022191906109e0565b905080610263576040517f08c379a000000000000000000000000000000000000000000000000000000000815260040161025a90610a59565b60405180910390fd5b600260009054906101000a900473ffffffffffffffffffffffffffffffffffffffff1673ffffffffffffffffffffffffffffffffffffffff166340c10f1933846040518363ffffffff1660e01b81526004016102c0929190610a79565b600060405180830381600087803b1580156102da57600080fd5b505af11580156102ee573d6000803e3d6000fd5b505050505050565b6102fe6105bf565b6103086000610646565b565b600160009054906101000a900473ffffffffffffffffffffffffffffffffffffffff1681565b60008060009054906101000a900473ffffffffffffffffffffffffffffffffffffffff16905090565b600260009054906101000a900473ffffffffffffffffffffffffffffffffffffffff1681565b600081116103c2576040517f08c379a00000000000000000000000000000000000000000000000000000000081526004016103b990610942565b60405180910390fd5b600260009054906101000a900473ffffffffffffffffffffffffffffffffffffffff1673ffffffffffffffffffffffffffffffffffffffff16639dc29fac33836040518363ffffffff1660e01b815260040161041f929190610a79565b600060405180830381600087803b15801561043957600080fd5b505af115801561044d573d6000803e3d6000fd5b505050506000600160009054906101000a900473ffffffffffffffffffffffffffffffffffffffff1673ffffffffffffffffffffffffffffffffffffffff1663a9059cbb33846040518363ffffffff1660e01b81526004016104b0929190610a79565b6020604051808303816000875af11580156104cf573d6000803e3d6000fd5b505050506040513d601f19601f820116820180604052508101906104f391906109e0565b905080610535576040517f08c379a000000000000000000000000000000000000000000000000000000000815260040161052c90610a59565b60405180910390fd5b5050565b6105416105bf565b600073ffffffffffffffffffffffffffffffffffffffff168173ffffffffffffffffffffffffffffffffffffffff16036105b35760006040517f1e4fbdf70000000000000000000000000000000000000000000000000000000081526004016105aa9190610835565b60405180910390fd5b6105bc81610646565b50565b6105c761070a565b73ffffffffffffffffffffffffffffffffffffffff166105e5610330565b73ffffffffffffffffffffffffffffffffffffffff16146106445761060861070a565b6040517f118cdaa700000000000000000000000000000000000000000000000000000000815260040161063b9190610835565b60405180910390fd5b565b60008060009054906101000a900473ffffffffffffffffffffffffffffffffffffffff169050816000806101000a81548173ffffffffffffffffffffffffffffffffffffffff021916908373ffffffffffffffffffffffffffffffffffffffff1602179055508173ffffffffffffffffffffffffffffffffffffffff168173ffffffffffffffffffffffffffffffffffffffff167f8be0079c531659141344cd1fd0a4f28419497f9722a3daafe3b4186f6b6457e060405160405180910390a35050565b600033905090565b600080fd5b6000819050919050565b61072a81610717565b811461073557600080fd5b50565b60008135905061074781610721565b92915050565b60006020828403121561076357610762610712565b5b600061077184828501610738565b91505092915050565b600073ffffffffffffffffffffffffffffffffffffffff82169050919050565b6000819050919050565b60006107bf6107ba6107b58461077a565b61079a565b61077a565b9050919050565b60006107d1826107a4565b9050919050565b60006107e3826107c6565b9050919050565b6107f3816107d8565b82525050565b600060208201905061080e60008301846107ea565b92915050565b600061081f8261077a565b9050919050565b61082f81610814565b82525050565b600060208201905061084a6000830184610826565b92915050565b600061085b826107c6565b9050919050565b61086b81610850565b82525050565b60006020820190506108866000830184610862565b92915050565b61089581610814565b81146108a057600080fd5b50565b6000813590506108b28161088c565b92915050565b6000602082840312156108ce576108cd610712565b5b60006108dc848285016108a3565b91505092915050565b600082825260208201905092915050565b7f416d6f756e74206d757374206265203e20300000000000000000000000000000600082015250565b600061092c6012836108e5565b9150610937826108f6565b602082019050919050565b6000602082019050818103600083015261095b8161091f565b9050919050565b61096b81610717565b82525050565b60006060820190506109866000830186610826565b6109936020830185610826565b6109a06040830184610962565b949350505050565b60008115159050919050565b6109bd816109a8565b81146109c857600080fd5b50565b6000815190506109da816109b4565b92915050565b6000602082840312156109f6576109f5610712565b5b6000610a04848285016109cb565b91505092915050565b7f42495455534454207472616e73666572206661696c6564000000000000000000600082015250565b6000610a436017836108e5565b9150610a4e82610a0d565b602082019050919050565b60006020820190508181036000830152610a7281610a36565b9050919050565b6000604082019050610a8e6000830185610826565b610a9b6020830184610962565b939250505056fea264697066735822122077df64c1ee4aca7f6297f5c5997dcb387f1bc293c3e21959ddfdd57eea21e43264736f6c63430008140033",
  "linkReferences": {},
  "deployedLinkReferences": {}
}