{
  "_format": "hh-sol-artifact-1",
  "contractName": "TokenMiner",
  "sourceName": "contracts/TokenMiner.sol",
  "abi": [
    {
      "inputs": [
        {
          "internalType": "contract BITUSDT",
          "name": "_bitusdt",
          "type": "address"
        },
        {
          "internalType": "contract BITDEX",
          "name": "_bitdex",
          "type": "address"
        },
        {
          "internalType": "address",
          "name": "_liquidityPool",
          "type": "address"
        }
      ],
      "stateMutability": "nonpayable",
      "type": "constructor"
    },
    {
      "inputs": [],
      "name": "bitdex",
      "outputs": [
        {
          "internalType": "contract BITDEX",
          "name": "",
          "type": "address"
        }
      ],
      "stateMutability": "view",
      "type": "function"
    },
    {
      "inputs": [],
      "name": "bitusdt",
      "outputs": [
        {
          "internalType": "contract BITUSDT",
          "name": "",
          "type": "address"
        }
      ],
      "stateMutability": "view",
      "type": "function"
    },
    {
      "inputs": [],
      "name": "claim",
      "outputs": [],
      "stateMutability": "nonpayable",
      "type": "function"
    },
    {
      "inputs": [
        {
          "internalType": "uint256",
          "name": "amount",
          "type": "uint256"
        }
      ],
      "name": "depositForMining",
      "outputs": [],
      "stateMutability": "nonpayable",
      "type": "function"
    },
    {
      "inputs": [
        {
          "internalType": "address",
          "name": "",
          "type": "address"
        }
      ],
      "name": "deposits",
      "outputs": [
        {
          "internalType": "uint256",
          "name": "amount",
          "type": "uint256"
        },
        {
          "internalType": "uint256",
          "name": "lastClaimed",
          "type": "uint256"
        },
        {
          "internalType": "uint256",
          "name": "totalClaimed",
          "type": "uint256"
        }
      ],
      "stateMutability": "view",
      "type": "function"
    },
    {
      "inputs": [],
      "name": "liquidityPool",
      "outputs": [
        {
          "internalType": "address",
          "name": "",
          "type": "address"
        }
      ],
      "stateMutability": "view",
      "type": "function"
    },
    {
      "inputs": [
        {
          "internalType": "address",
          "name": "user",
          "type": "address"
        }
      ],
      "name": "pendingReward",
      "outputs": [
        {
          "internalType": "uint256",
          "name": "",
          "type": "uint256"
        }
      ],
      "stateMutability": "view",
      "type": "function"
    },
    {
      "inputs": [
        {
          "internalType": "uint256",
          "name": "amount",
          "type": "uint256"
        }
      ],
      "name": "withdraw",
      "outputs": [],
      "stateMutability": "nonpayable",
      "type": "function"
    }
  ],
  "bytecode": "0x60806040523480156200001157600080fd5b506040516200128f3803806200128f8339818101604052810190620000379190620001f7565b82600160006101000a81548173ffffffffffffffffffffffffffffffffffffffff021916908373ffffffffffffffffffffffffffffffffffffffff16021790555081600260006101000a81548173ffffffffffffffffffffffffffffffffffffffff021916908373ffffffffffffffffffffffffffffffffffffffff16021790555080600360006101000a81548173ffffffffffffffffffffffffffffffffffffffff021916908373ffffffffffffffffffffffffffffffffffffffff16021790555050505062000253565b600080fd5b600073ffffffffffffffffffffffffffffffffffffffff82169050919050565b6000620001358262000108565b9050919050565b6000620001498262000128565b9050919050565b6200015b816200013c565b81146200016757600080fd5b50565b6000815190506200017b8162000150565b92915050565b60006200018e8262000128565b9050919050565b620001a08162000181565b8114620001ac57600080fd5b50565b600081519050620001c08162000195565b92915050565b620001d18162000128565b8114620001dd57600080fd5b50565b600081519050620001f181620001c6565b92915050565b60008060006060848603121562000213576200021262000103565b5b600062000223868287016200016a565b93505060206200023686828701620001af565b92505060406200024986828701620001e0565b9150509250925092565b61102c80620002636000396000f3fe608060405234801561001057600080fd5b50600436106100885760003560e01c8063b6efef711161005b578063b6efef71146100ef578063d00120e61461010d578063f40f0f5214610129578063fc7e286d1461015957610088565b80632e1a7d4d1461008d5780634e71d92d146100a9578063665a11ca146100b35780637a9785e8146100d1575b600080fd5b6100a760048036038101906100a291906109b6565b61018b565b005b6100b16103c6565b005b6100bb610531565b6040516100c89190610a24565b60405180910390f35b6100d9610557565b6040516100e69190610a9e565b60405180910390f35b6100f761057d565b6040516101049190610ada565b60405180910390f35b610127600480360381019061012291906109b6565b6105a3565b005b610143600480360381019061013e9190610b21565b6107c4565b6040516101509190610b5d565b60405180910390f35b610173600480360381019061016e9190610b21565b61086d565b60405161018293929190610b78565b60405180910390f35b60008060003373ffffffffffffffffffffffffffffffffffffffff1673ffffffffffffffffffffffffffffffffffffffff16815260200190815260200160002090508181600001541015610214576040517f08c379a000000000000000000000000000000000000000000000000000000000815260040161020b90610c0c565b60405180910390fd5b61021d33610897565b818160000160008282546102319190610c5b565b92505081905550600080600160009054906101000a900473ffffffffffffffffffffffffffffffffffffffff1673ffffffffffffffffffffffffffffffffffffffff163385604051602401610287929190610c8f565b6040516020818303038152906040527fa9059cbb000000000000000000000000000000000000000000000000000000007bffffffffffffffffffffffffffffffffffffffffffffffffffffffff19166020820180517bffffffffffffffffffffffffffffffffffffffffffffffffffffffff83818316178352505050506040516103119190610d29565b6000604051808303816000865af19150503d806000811461034e576040519150601f19603f3d011682016040523d82523d6000602084013e610353565b606091505b5091509150818015610381575060008151148061038057508080602001905181019061037f9190610d78565b5b5b6103c0576040517f08c379a00000000000000000000000000000000000000000000000000000000081526004016103b790610df1565b60405180910390fd5b50505050565b6103cf33610897565b60008060003373ffffffffffffffffffffffffffffffffffffffff1673ffffffffffffffffffffffffffffffffffffffff16815260200190815260200160002060020154905060008111610458576040517f08c379a000000000000000000000000000000000000000000000000000000000815260040161044f90610e5d565b60405180910390fd5b60008060003373ffffffffffffffffffffffffffffffffffffffff1673ffffffffffffffffffffffffffffffffffffffff16815260200190815260200160002060020181905550600260009054906101000a900473ffffffffffffffffffffffffffffffffffffffff1673ffffffffffffffffffffffffffffffffffffffff166340c10f1933836040518363ffffffff1660e01b81526004016104fc929190610c8f565b600060405180830381600087803b15801561051657600080fd5b505af115801561052a573d6000803e3d6000fd5b5050505050565b600360009054906101000a900473ffffffffffffffffffffffffffffffffffffffff1681565b600160009054906101000a900473ffffffffffffffffffffffffffffffffffffffff1681565b600260009054906101000a900473ffffffffffffffffffffffffffffffffffffffff1681565b600080600160009054906101000a900473ffffffffffffffffffffffffffffffffffffffff1673ffffffffffffffffffffffffffffffffffffffff1633600360009054906101000a900473ffffffffffffffffffffffffffffffffffffffff168560405160240161061693929190610e7d565b6040516020818303038152906040527f23b872dd000000000000000000000000000000000000000000000000000000007bffffffffffffffffffffffffffffffffffffffffffffffffffffffff19166020820180517bffffffffffffffffffffffffffffffffffffffffffffffffffffffff83818316178352505050506040516106a09190610d29565b6000604051808303816000865af19150503d80600081146106dd576040519150601f19603f3d011682016040523d82523d6000602084013e6106e2565b606091505b5091509150818015610710575060008151148061070f57508080602001905181019061070e9190610d78565b5b5b61074f576040517f08c379a000000000000000000000000000000000000000000000000000000000815260040161074690610f00565b60405180910390fd5b60008060003373ffffffffffffffffffffffffffffffffffffffff1673ffffffffffffffffffffffffffffffffffffffff168152602001908152602001600020905061079a33610897565b838160000160008282546107ae9190610f20565b9250508190555042816001018190555050505050565b6000806000808473ffffffffffffffffffffffffffffffffffffffff1673ffffffffffffffffffffffffffffffffffffffff1681526020019081526020016000209050600081600001540361081d576000915050610868565b600081600101544261082f9190610c5b565b905060006127108284600001546108469190610f54565b6108509190610fc5565b90508083600201546108629190610f20565b93505050505b919050565b60006020528060005260406000206000915090508060000154908060010154908060020154905083565b60008060008373ffffffffffffffffffffffffffffffffffffffff1673ffffffffffffffffffffffffffffffffffffffff168152602001908152602001600020905060008160000154036108eb5750610978565b60008160010154036109065742816001018190555050610978565b60008160010154426109189190610c5b565b905060006323c34600670de0b6b3a764000083856000015461093a9190610f54565b6109449190610f54565b61094e9190610fc5565b9050808360020160008282546109649190610f20565b925050819055504283600101819055505050505b50565b600080fd5b6000819050919050565b61099381610980565b811461099e57600080fd5b50565b6000813590506109b08161098a565b92915050565b6000602082840312156109cc576109cb61097b565b5b60006109da848285016109a1565b91505092915050565b600073ffffffffffffffffffffffffffffffffffffffff82169050919050565b6000610a0e826109e3565b9050919050565b610a1e81610a03565b82525050565b6000602082019050610a396000830184610a15565b92915050565b6000819050919050565b6000610a64610a5f610a5a846109e3565b610a3f565b6109e3565b9050919050565b6000610a7682610a49565b9050919050565b6000610a8882610a6b565b9050919050565b610a9881610a7d565b82525050565b6000602082019050610ab36000830184610a8f565b92915050565b6000610ac482610a6b565b9050919050565b610ad481610ab9565b82525050565b6000602082019050610aef6000830184610acb565b92915050565b610afe81610a03565b8114610b0957600080fd5b50565b600081359050610b1b81610af5565b92915050565b600060208284031215610b3757610b3661097b565b5b6000610b4584828501610b0c565b91505092915050565b610b5781610980565b82525050565b6000602082019050610b726000830184610b4e565b92915050565b6000606082019050610b8d6000830186610b4e565b610b9a6020830185610b4e565b610ba76040830184610b4e565b949350505050565b600082825260208201905092915050565b7f496e73756666696369656e74207374616b650000000000000000000000000000600082015250565b6000610bf6601283610baf565b9150610c0182610bc0565b602082019050919050565b60006020820190508181036000830152610c2581610be9565b9050919050565b7f4e487b7100000000000000000000000000000000000000000000000000000000600052601160045260246000fd5b6000610c6682610980565b9150610c7183610980565b9250828203905081811115610c8957610c88610c2c565b5b92915050565b6000604082019050610ca46000830185610a15565b610cb16020830184610b4e565b9392505050565b600081519050919050565b600081905092915050565b60005b83811015610cec578082015181840152602081019050610cd1565b60008484015250505050565b6000610d0382610cb8565b610d0d8185610cc3565b9350610d1d818560208601610cce565b80840191505092915050565b6000610d358284610cf8565b915081905092915050565b60008115159050919050565b610d5581610d40565b8114610d6057600080fd5b50565b600081519050610d7281610d4c565b92915050565b600060208284031215610d8e57610d8d61097b565b5b6000610d9c84828501610d63565b91505092915050565b7f5769746864726177206661696c65640000000000000000000000000000000000600082015250565b6000610ddb600f83610baf565b9150610de682610da5565b602082019050919050565b60006020820190508181036000830152610e0a81610dce565b9050919050565b7f4e6f7468696e6720746f20636c61696d00000000000000000000000000000000600082015250565b6000610e47601083610baf565b9150610e5282610e11565b602082019050919050565b60006020820190508181036000830152610e7681610e3a565b9050919050565b6000606082019050610e926000830186610a15565b610e9f6020830185610a15565b610eac6040830184610b4e565b949350505050565b7f5472616e73666572206661696c65640000000000000000000000000000000000600082015250565b6000610eea600f83610baf565b9150610ef582610eb4565b602082019050919050565b60006020820190508181036000830152610f1981610edd565b9050919050565b6000610f2b82610980565b9150610f3683610980565b9250828201905080821115610f4e57610f4d610c2c565b5b92915050565b6000610f5f82610980565b9150610f6a83610980565b9250828202610f7881610980565b91508282048414831517610f8f57610f8e610c2c565b5b5092915050565b7f4e487b7100000000000000000000000000000000000000000000000000000000600052601260045260246000fd5b6000610fd082610980565b9150610fdb83610980565b925082610feb57610fea610f96565b5b82820490509291505056fea2646970667358221220ede36d0b3392fd03033cd21f01cba6e0b2353c594388c412f4ab80072745c34964736f6c63430008140033",
  "linkReferences": {},
  "deployedLinkReferences": {}
}