{
  "_format": "hh-sol-artifact-1",
  "contractName": "LiquidityPoolManager",
  "sourceName": "contracts/LiquidityPoolManager.sol",
  "abi": [
    {
      "inputs": [
        {
          "internalType": "address",
          "name": "_bitusdt",
          "type": "address"
        },
        {
          "internalType": "address",
          "name": "_lpusdt",
          "type": "address"
        },
        {
          "internalType": "address",
          "name": "ownerAddress",
          "type": "address"
        }
      ],
      "stateMutability": "nonpayable",
      "type": "constructor"
    },
    {
      "inputs": [
        {
          "internalType": "address",
          "name": "owner",
          "type": "address"
        }
      ],
      "name": "OwnableInvalidOwner",
      "type": "error"
    },
    {
      "inputs": [
        {
          "internalType": "address",
          "name": "account",
          "type": "address"
        }
      ],
      "name": "OwnableUnauthorizedAccount",
      "type": "error"
    },
    {
      "anonymous": false,
      "inputs": [
        {
          "indexed": true,
          "internalType": "address",
          "name": "previousOwner",
          "type": "address"
        },
        {
          "indexed": true,
          "internalType": "address",
          "name": "newOwner",
          "type": "address"
        }
      ],
      "name": "OwnershipTransferred",
      "type": "event"
    },
    {
      "inputs": [
        {
          "internalType": "uint256",
          "name": "amount",
          "type": "uint256"
        }
      ],
      "name": "addLiquidez",
      "outputs": [],
      "stateMutability": "nonpayable",
      "type": "function"
    },
    {
      "inputs": [],
      "name": "bitusdt",
      "outputs": [
        {
          "internalType": "contract BITUSDT",
          "name": "",
          "type": "address"
        }
      ],
      "stateMutability": "view",
      "type": "function"
    },
    {
      "inputs": [
        {
          "internalType": "address",
          "name": "strategy",
          "type": "address"
        },
        {
          "internalType": "uint256",
          "name": "amount",
          "type": "uint256"
        }
      ],
      "name": "depositFromStrategy",
      "outputs": [],
      "stateMutability": "nonpayable",
      "type": "function"
    },
    {
      "inputs": [],
      "name": "lpusdt",
      "outputs": [
        {
          "internalType": "contract LPUSDT",
          "name": "",
          "type": "address"
        }
      ],
      "stateMutability": "view",
      "type": "function"
    },
    {
      "inputs": [],
      "name": "owner",
      "outputs": [
        {
          "internalType": "address",
          "name": "",
          "type": "address"
        }
      ],
      "stateMutability": "view",
      "type": "function"
    },
    {
      "inputs": [
        {
          "internalType": "address",
          "name": "to",
          "type": "address"
        },
        {
          "internalType": "uint256",
          "name": "amount",
          "type": "uint256"
        }
      ],
      "name": "redeem",
      "outputs": [],
      "stateMutability": "nonpayable",
      "type": "function"
    },
    {
      "inputs": [
        {
          "internalType": "uint256",
          "name": "amount",
          "type": "uint256"
        }
      ],
      "name": "removeLiquidez",
      "outputs": [],
      "stateMutability": "nonpayable",
      "type": "function"
    },
    {
      "inputs": [],
      "name": "renounceOwnership",
      "outputs": [],
      "stateMutability": "nonpayable",
      "type": "function"
    },
    {
      "inputs": [
        {
          "internalType": "address",
          "name": "_strategyManager",
          "type": "address"
        }
      ],
      "name": "setStrategyManager",
      "outputs": [],
      "stateMutability": "nonpayable",
      "type": "function"
    },
    {
      "inputs": [
        {
          "internalType": "address",
          "name": "_tokenMiner",
          "type": "address"
        }
      ],
      "name": "setTokenMiner",
      "outputs": [],
      "stateMutability": "nonpayable",
      "type": "function"
    },
    {
      "inputs": [],
      "name": "strategyManager",
      "outputs": [
        {
          "internalType": "address",
          "name": "",
          "type": "address"
        }
      ],
      "stateMutability": "view",
      "type": "function"
    },
    {
      "inputs": [],
      "name": "tokenMiner",
      "outputs": [
        {
          "internalType": "address",
          "name": "",
          "type": "address"
        }
      ],
      "stateMutability": "view",
      "type": "function"
    },
    {
      "inputs": [
        {
          "internalType": "address",
          "name": "newOwner",
          "type": "address"
        }
      ],
      "name": "transferOwnership",
      "outputs": [],
      "stateMutability": "nonpayable",
      "type": "function"
    },
    {
      "inputs": [
        {
          "internalType": "address",
          "name": "strategy",
          "type": "address"
        },
        {
          "internalType": "uint256",
          "name": "amount",
          "type": "uint256"
        }
      ],
      "name": "withdrawToStrategy",
      "outputs": [],
      "stateMutability": "nonpayable",
      "type": "function"
    }
  ],
  "bytecode": "0x60806040523480156200001157600080fd5b5060405162001bb838038062001bb8833981810160405281019062000037919062000278565b80600073ffffffffffffffffffffffffffffffffffffffff168173ffffffffffffffffffffffffffffffffffffffff1603620000ad5760006040517f1e4fbdf7000000000000000000000000000000000000000000000000000000008152600401620000a49190620002e5565b60405180910390fd5b620000be816200014a60201b60201c565b5082600160006101000a81548173ffffffffffffffffffffffffffffffffffffffff021916908373ffffffffffffffffffffffffffffffffffffffff16021790555081600260006101000a81548173ffffffffffffffffffffffffffffffffffffffff021916908373ffffffffffffffffffffffffffffffffffffffff16021790555050505062000302565b60008060009054906101000a900473ffffffffffffffffffffffffffffffffffffffff169050816000806101000a81548173ffffffffffffffffffffffffffffffffffffffff021916908373ffffffffffffffffffffffffffffffffffffffff1602179055508173ffffffffffffffffffffffffffffffffffffffff168173ffffffffffffffffffffffffffffffffffffffff167f8be0079c531659141344cd1fd0a4f28419497f9722a3daafe3b4186f6b6457e060405160405180910390a35050565b600080fd5b600073ffffffffffffffffffffffffffffffffffffffff82169050919050565b6000620002408262000213565b9050919050565b620002528162000233565b81146200025e57600080fd5b50565b600081519050620002728162000247565b92915050565b6000806000606084860312156200029457620002936200020e565b5b6000620002a48682870162000261565b9350506020620002b78682870162000261565b9250506040620002ca8682870162000261565b9150509250925092565b620002df8162000233565b82525050565b6000602082019050620002fc6000830184620002d4565b92915050565b6118a680620003126000396000f3fe608060405234801561001057600080fd5b50600436106100ea5760003560e01c80637a9785e81161008c578063a44c183311610066578063a44c1833146101fd578063dd2041e714610219578063eecf2e3014610237578063f2fde38b14610253576100ea565b80637a9785e8146101a357806389292688146101c15780638da5cb5b146101df576100ea565b8063372dc0cc116100c8578063372dc0cc1461014357806339b70e381461015f5780635c9666461461017d578063715018a614610199576100ea565b80630d2e9c9a146100ef57806319b557c21461010b5780631e9a695014610127575b600080fd5b610109600480360381019061010491906111a5565b61026f565b005b61012560048036038101906101209190611230565b61042b565b005b610141600480360381019061013c919061125d565b6104e6565b005b61015d6004803603810190610158919061125d565b6107ef565b005b6101676109ad565b60405161017491906112ac565b60405180910390f35b61019760048036038101906101929190611230565b6109d3565b005b6101a1610a8e565b005b6101ab610aa2565b6040516101b89190611326565b60405180910390f35b6101c9610ac8565b6040516101d691906112ac565b60405180910390f35b6101e7610aee565b6040516101f491906112ac565b60405180910390f35b6102176004803603810190610212919061125d565b610b17565b005b610221610db1565b60405161022e9190611362565b60405180910390f35b610251600480360381019061024c91906111a5565b610dd7565b005b61026d60048036038101906102689190611230565b610f91565b005b600081116102b2576040517f08c379a00000000000000000000000000000000000000000000000000000000081526004016102a9906113da565b60405180910390fd5b6000600160009054906101000a900473ffffffffffffffffffffffffffffffffffffffff1673ffffffffffffffffffffffffffffffffffffffff166323b872dd3330856040518463ffffffff1660e01b815260040161031393929190611409565b6020604051808303816000875af1158015610332573d6000803e3d6000fd5b505050506040513d601f19601f820116820180604052508101906103569190611478565b905080610398576040517f08c379a000000000000000000000000000000000000000000000000000000000815260040161038f906114f1565b60405180910390fd5b600260009054906101000a900473ffffffffffffffffffffffffffffffffffffffff1673ffffffffffffffffffffffffffffffffffffffff166340c10f1933846040518363ffffffff1660e01b81526004016103f5929190611511565b600060405180830381600087803b15801561040f57600080fd5b505af1158015610423573d6000803e3d6000fd5b505050505050565b610433611017565b600073ffffffffffffffffffffffffffffffffffffffff168173ffffffffffffffffffffffffffffffffffffffff16036104a2576040517f08c379a000000000000000000000000000000000000000000000000000000000815260040161049990611586565b60405180910390fd5b80600460006101000a81548173ffffffffffffffffffffffffffffffffffffffff021916908373ffffffffffffffffffffffffffffffffffffffff16021790555050565b600460009054906101000a900473ffffffffffffffffffffffffffffffffffffffff1673ffffffffffffffffffffffffffffffffffffffff163373ffffffffffffffffffffffffffffffffffffffff1614610576576040517f08c379a000000000000000000000000000000000000000000000000000000000815260040161056d906115f2565b60405180910390fd5b600073ffffffffffffffffffffffffffffffffffffffff168273ffffffffffffffffffffffffffffffffffffffff16036105e5576040517f08c379a00000000000000000000000000000000000000000000000000000000081526004016105dc9061165e565b60405180910390fd5b60008111610628576040517f08c379a000000000000000000000000000000000000000000000000000000000815260040161061f906113da565b60405180910390fd5b80600160009054906101000a900473ffffffffffffffffffffffffffffffffffffffff1673ffffffffffffffffffffffffffffffffffffffff166370a08231306040518263ffffffff1660e01b815260040161068491906112ac565b602060405180830381865afa1580156106a1573d6000803e3d6000fd5b505050506040513d601f19601f820116820180604052508101906106c59190611693565b1015610706576040517f08c379a00000000000000000000000000000000000000000000000000000000081526004016106fd9061170c565b60405180910390fd5b6000600160009054906101000a900473ffffffffffffffffffffffffffffffffffffffff1673ffffffffffffffffffffffffffffffffffffffff1663a9059cbb84846040518363ffffffff1660e01b8152600401610765929190611511565b6020604051808303816000875af1158015610784573d6000803e3d6000fd5b505050506040513d601f19601f820116820180604052508101906107a89190611478565b9050806107ea576040517f08c379a00000000000000000000000000000000000000000000000000000000081526004016107e190611778565b60405180910390fd5b505050565b600360009054906101000a900473ffffffffffffffffffffffffffffffffffffffff1673ffffffffffffffffffffffffffffffffffffffff163373ffffffffffffffffffffffffffffffffffffffff161461087f576040517f08c379a0000000000000000000000000000000000000000000000000000000008152600401610876906115f2565b60405180910390fd5b600081116108c2576040517f08c379a00000000000000000000000000000000000000000000000000000000081526004016108b9906113da565b60405180910390fd5b6000600160009054906101000a900473ffffffffffffffffffffffffffffffffffffffff1673ffffffffffffffffffffffffffffffffffffffff166323b872dd8430856040518463ffffffff1660e01b815260040161092393929190611409565b6020604051808303816000875af1158015610942573d6000803e3d6000fd5b505050506040513d601f19601f820116820180604052508101906109669190611478565b9050806109a8576040517f08c379a000000000000000000000000000000000000000000000000000000000815260040161099f906117e4565b60405180910390fd5b505050565b600360009054906101000a900473ffffffffffffffffffffffffffffffffffffffff1681565b6109db611017565b600073ffffffffffffffffffffffffffffffffffffffff168173ffffffffffffffffffffffffffffffffffffffff1603610a4a576040517f08c379a0000000000000000000000000000000000000000000000000000000008152600401610a4190611586565b60405180910390fd5b80600360006101000a81548173ffffffffffffffffffffffffffffffffffffffff021916908373ffffffffffffffffffffffffffffffffffffffff16021790555050565b610a96611017565b610aa0600061109e565b565b600160009054906101000a900473ffffffffffffffffffffffffffffffffffffffff1681565b600460009054906101000a900473ffffffffffffffffffffffffffffffffffffffff1681565b60008060009054906101000a900473ffffffffffffffffffffffffffffffffffffffff16905090565b600360009054906101000a900473ffffffffffffffffffffffffffffffffffffffff1673ffffffffffffffffffffffffffffffffffffffff163373ffffffffffffffffffffffffffffffffffffffff1614610ba7576040517f08c379a0000000000000000000000000000000000000000000000000000000008152600401610b9e906115f2565b60405180910390fd5b60008111610bea576040517f08c379a0000000000000000000000000000000000000000000000000000000008152600401610be1906113da565b60405180910390fd5b80600160009054906101000a900473ffffffffffffffffffffffffffffffffffffffff1673ffffffffffffffffffffffffffffffffffffffff166370a08231306040518263ffffffff1660e01b8152600401610c4691906112ac565b602060405180830381865afa158015610c63573d6000803e3d6000fd5b505050506040513d601f19601f82011682018060405250810190610c879190611693565b1015610cc8576040517f08c379a0000000000000000000000000000000000000000000000000000000008152600401610cbf9061170c565b60405180910390fd5b6000600160009054906101000a900473ffffffffffffffffffffffffffffffffffffffff1673ffffffffffffffffffffffffffffffffffffffff1663a9059cbb84846040518363ffffffff1660e01b8152600401610d27929190611511565b6020604051808303816000875af1158015610d46573d6000803e3d6000fd5b505050506040513d601f19601f82011682018060405250810190610d6a9190611478565b905080610dac576040517f08c379a0000000000000000000000000000000000000000000000000000000008152600401610da390611850565b60405180910390fd5b505050565b600260009054906101000a900473ffffffffffffffffffffffffffffffffffffffff1681565b60008111610e1a576040517f08c379a0000000000000000000000000000000000000000000000000000000008152600401610e11906113da565b60405180910390fd5b600260009054906101000a900473ffffffffffffffffffffffffffffffffffffffff1673ffffffffffffffffffffffffffffffffffffffff16639dc29fac33836040518363ffffffff1660e01b8152600401610e77929190611511565b600060405180830381600087803b158015610e9157600080fd5b505af1158015610ea5573d6000803e3d6000fd5b505050506000600160009054906101000a900473ffffffffffffffffffffffffffffffffffffffff1673ffffffffffffffffffffffffffffffffffffffff1663a9059cbb33846040518363ffffffff1660e01b8152600401610f08929190611511565b6020604051808303816000875af1158015610f27573d6000803e3d6000fd5b505050506040513d601f19601f82011682018060405250810190610f4b9190611478565b905080610f8d576040517f08c379a0000000000000000000000000000000000000000000000000000000008152600401610f84906114f1565b60405180910390fd5b5050565b610f99611017565b600073ffffffffffffffffffffffffffffffffffffffff168173ffffffffffffffffffffffffffffffffffffffff160361100b5760006040517f1e4fbdf700000000000000000000000000000000000000000000000000000000815260040161100291906112ac565b60405180910390fd5b6110148161109e565b50565b61101f611162565b73ffffffffffffffffffffffffffffffffffffffff1661103d610aee565b73ffffffffffffffffffffffffffffffffffffffff161461109c57611060611162565b6040517f118cdaa700000000000000000000000000000000000000000000000000000000815260040161109391906112ac565b60405180910390fd5b565b60008060009054906101000a900473ffffffffffffffffffffffffffffffffffffffff169050816000806101000a81548173ffffffffffffffffffffffffffffffffffffffff021916908373ffffffffffffffffffffffffffffffffffffffff1602179055508173ffffffffffffffffffffffffffffffffffffffff168173ffffffffffffffffffffffffffffffffffffffff167f8be0079c531659141344cd1fd0a4f28419497f9722a3daafe3b4186f6b6457e060405160405180910390a35050565b600033905090565b600080fd5b6000819050919050565b6111828161116f565b811461118d57600080fd5b50565b60008135905061119f81611179565b92915050565b6000602082840312156111bb576111ba61116a565b5b60006111c984828501611190565b91505092915050565b600073ffffffffffffffffffffffffffffffffffffffff82169050919050565b60006111fd826111d2565b9050919050565b61120d816111f2565b811461121857600080fd5b50565b60008135905061122a81611204565b92915050565b6000602082840312156112465761124561116a565b5b60006112548482850161121b565b91505092915050565b600080604083850312156112745761127361116a565b5b60006112828582860161121b565b925050602061129385828601611190565b9150509250929050565b6112a6816111f2565b82525050565b60006020820190506112c1600083018461129d565b92915050565b6000819050919050565b60006112ec6112e76112e2846111d2565b6112c7565b6111d2565b9050919050565b60006112fe826112d1565b9050919050565b6000611310826112f3565b9050919050565b61132081611305565b82525050565b600060208201905061133b6000830184611317565b92915050565b600061134c826112f3565b9050919050565b61135c81611341565b82525050565b60006020820190506113776000830184611353565b92915050565b600082825260208201905092915050565b7f416d6f756e74206d757374206265203e20300000000000000000000000000000600082015250565b60006113c460128361137d565b91506113cf8261138e565b602082019050919050565b600060208201905081810360008301526113f3816113b7565b9050919050565b6114038161116f565b82525050565b600060608201905061141e600083018661129d565b61142b602083018561129d565b61143860408301846113fa565b949350505050565b60008115159050919050565b61145581611440565b811461146057600080fd5b50565b6000815190506114728161144c565b92915050565b60006020828403121561148e5761148d61116a565b5b600061149c84828501611463565b91505092915050565b7f42495455534454207472616e73666572206661696c6564000000000000000000600082015250565b60006114db60178361137d565b91506114e6826114a5565b602082019050919050565b6000602082019050818103600083015261150a816114ce565b9050919050565b6000604082019050611526600083018561129d565b61153360208301846113fa565b9392505050565b7f496e76616c696420616464726573730000000000000000000000000000000000600082015250565b6000611570600f8361137d565b915061157b8261153a565b602082019050919050565b6000602082019050818103600083015261159f81611563565b9050919050565b7f4e6f7420617574686f72697a6564000000000000000000000000000000000000600082015250565b60006115dc600e8361137d565b91506115e7826115a6565b602082019050919050565b6000602082019050818103600083015261160b816115cf565b9050919050565b7f496e76616c696420726563697069656e74000000000000000000000000000000600082015250565b600061164860118361137d565b915061165382611612565b602082019050919050565b600060208201905081810360008301526116778161163b565b9050919050565b60008151905061168d81611179565b92915050565b6000602082840312156116a9576116a861116a565b5b60006116b78482850161167e565b91505092915050565b7f496e73756666696369656e7420706f6f6c2062616c616e636500000000000000600082015250565b60006116f660198361137d565b9150611701826116c0565b602082019050919050565b60006020820190508181036000830152611725816116e9565b9050919050565b7f52656465656d207472616e73666572206661696c656400000000000000000000600082015250565b600061176260168361137d565b915061176d8261172c565b602082019050919050565b6000602082019050818103600083015261179181611755565b9050919050565b7f5472616e7366657246726f6d206661696c656400000000000000000000000000600082015250565b60006117ce60138361137d565b91506117d982611798565b602082019050919050565b600060208201905081810360008301526117fd816117c1565b9050919050565b7f5472616e7366657220746f207374726174656779206661696c65640000000000600082015250565b600061183a601b8361137d565b915061184582611804565b602082019050919050565b600060208201905081810360008301526118698161182d565b905091905056fea26469706673582212208fe08b0b763a43d108f724f608dbbffc504ef81d6d755e3cbc620dddcad946e764736f6c63430008140033",
  "linkReferences": {},
  "deployedLinkReferences": {}
}