{
  "_format": "hh-sol-artifact-1",
  "contractName": "TokenMiner",
  "sourceName": "contracts/TokenMiner.sol",
  "abi": [
    {
      "inputs": [
        {
          "internalType": "contract BITUSDT",
          "name": "_bitusdt",
          "type": "address"
        },
        {
          "internalType": "contract BITDEX",
          "name": "_bitdex",
          "type": "address"
        },
        {
          "internalType": "address",
          "name": "_liquidityPool",
          "type": "address"
        }
      ],
      "stateMutability": "nonpayable",
      "type": "constructor"
    },
    {
      "inputs": [],
      "name": "bitdex",
      "outputs": [
        {
          "internalType": "contract BITDEX",
          "name": "",
          "type": "address"
        }
      ],
      "stateMutability": "view",
      "type": "function"
    },
    {
      "inputs": [],
      "name": "bitusdt",
      "outputs": [
        {
          "internalType": "contract BITUSDT",
          "name": "",
          "type": "address"
        }
      ],
      "stateMutability": "view",
      "type": "function"
    },
    {
      "inputs": [],
      "name": "claim",
      "outputs": [],
      "stateMutability": "nonpayable",
      "type": "function"
    },
    {
      "inputs": [
        {
          "internalType": "uint256",
          "name": "amount",
          "type": "uint256"
        }
      ],
      "name": "depositForMining",
      "outputs": [],
      "stateMutability": "nonpayable",
      "type": "function"
    },
    {
      "inputs": [
        {
          "internalType": "address",
          "name": "",
          "type": "address"
        }
      ],
      "name": "deposits",
      "outputs": [
        {
          "internalType": "uint256",
          "name": "amount",
          "type": "uint256"
        },
        {
          "internalType": "uint256",
          "name": "lastClaimed",
          "type": "uint256"
        },
        {
          "internalType": "uint256",
          "name": "totalClaimed",
          "type": "uint256"
        }
      ],
      "stateMutability": "view",
      "type": "function"
    },
    {
      "inputs": [],
      "name": "liquidityPool",
      "outputs": [
        {
          "internalType": "contract ILiquidityPool",
          "name": "",
          "type": "address"
        }
      ],
      "stateMutability": "view",
      "type": "function"
    },
    {
      "inputs": [],
      "name": "owner",
      "outputs": [
        {
          "internalType": "address",
          "name": "",
          "type": "address"
        }
      ],
      "stateMutability": "view",
      "type": "function"
    },
    {
      "inputs": [
        {
          "internalType": "address",
          "name": "user",
          "type": "address"
        }
      ],
      "name": "pendingReward",
      "outputs": [
        {
          "internalType": "uint256",
          "name": "",
          "type": "uint256"
        }
      ],
      "stateMutability": "view",
      "type": "function"
    },
    {
      "inputs": [],
      "name": "rewardPerSecondPerToken",
      "outputs": [
        {
          "internalType": "uint256",
          "name": "",
          "type": "uint256"
        }
      ],
      "stateMutability": "view",
      "type": "function"
    },
    {
      "inputs": [
        {
          "internalType": "uint256",
          "name": "_newRate",
          "type": "uint256"
        }
      ],
      "name": "setRewardRate",
      "outputs": [],
      "stateMutability": "nonpayable",
      "type": "function"
    },
    {
      "inputs": [
        {
          "internalType": "uint256",
          "name": "amount",
          "type": "uint256"
        }
      ],
      "name": "withdraw",
      "outputs": [],
      "stateMutability": "nonpayable",
      "type": "function"
    }
  ],
  "bytecode": "0x60806040526597951b766aaa6004553480156200001b57600080fd5b506040516200136e3803806200136e833981810160405281019062000041919062000242565b82600160006101000a81548173ffffffffffffffffffffffffffffffffffffffff021916908373ffffffffffffffffffffffffffffffffffffffff16021790555081600260006101000a81548173ffffffffffffffffffffffffffffffffffffffff021916908373ffffffffffffffffffffffffffffffffffffffff16021790555080600360006101000a81548173ffffffffffffffffffffffffffffffffffffffff021916908373ffffffffffffffffffffffffffffffffffffffff16021790555033600560006101000a81548173ffffffffffffffffffffffffffffffffffffffff021916908373ffffffffffffffffffffffffffffffffffffffff1602179055505050506200029e565b600080fd5b600073ffffffffffffffffffffffffffffffffffffffff82169050919050565b6000620001808262000153565b9050919050565b6000620001948262000173565b9050919050565b620001a68162000187565b8114620001b257600080fd5b50565b600081519050620001c6816200019b565b92915050565b6000620001d98262000173565b9050919050565b620001eb81620001cc565b8114620001f757600080fd5b50565b6000815190506200020b81620001e0565b92915050565b6200021c8162000173565b81146200022857600080fd5b50565b6000815190506200023c8162000211565b92915050565b6000806000606084860312156200025e576200025d6200014e565b5b60006200026e86828701620001b5565b93505060206200028186828701620001fa565b925050604062000294868287016200022b565b9150509250925092565b6110c080620002ae6000396000f3fe608060405234801561001057600080fd5b50600436106100a95760003560e01c80639e447fc6116100715780639e447fc61461012e578063b6efef711461014a578063d00120e614610168578063f40f0f5214610184578063fc7e286d146101b4578063fe7d19da146101e6576100a9565b80632e1a7d4d146100ae5780634e71d92d146100ca578063665a11ca146100d45780637a9785e8146100f25780638da5cb5b14610110575b600080fd5b6100c860048036038101906100c39190610a0e565b610204565b005b6100d2610344565b005b6100dc6104af565b6040516100e99190610aba565b60405180910390f35b6100fa6104d5565b6040516101079190610af6565b60405180910390f35b6101186104fb565b6040516101259190610b32565b60405180910390f35b61014860048036038101906101439190610a0e565b610521565b005b6101526105bb565b60405161015f9190610b6e565b60405180910390f35b610182600480360381019061017d9190610a0e565b6105e1565b005b61019e60048036038101906101999190610bb5565b61080f565b6040516101ab9190610bf1565b60405180910390f35b6101ce60048036038101906101c99190610bb5565b6108cc565b6040516101dd93929190610c0c565b60405180910390f35b6101ee6108f6565b6040516101fb9190610bf1565b60405180910390f35b60008060003373ffffffffffffffffffffffffffffffffffffffff1673ffffffffffffffffffffffffffffffffffffffff1681526020019081526020016000209050818160000154101561028d576040517f08c379a000000000000000000000000000000000000000000000000000000000815260040161028490610ca0565b60405180910390fd5b610296336108fc565b818160000160008282546102aa9190610cef565b92505081905550600360009054906101000a900473ffffffffffffffffffffffffffffffffffffffff1673ffffffffffffffffffffffffffffffffffffffff16631e9a695033846040518363ffffffff1660e01b815260040161030e929190610d23565b600060405180830381600087803b15801561032857600080fd5b505af115801561033c573d6000803e3d6000fd5b505050505050565b61034d336108fc565b60008060003373ffffffffffffffffffffffffffffffffffffffff1673ffffffffffffffffffffffffffffffffffffffff168152602001908152602001600020600201549050600081116103d6576040517f08c379a00000000000000000000000000000000000000000000000000000000081526004016103cd90610d98565b60405180910390fd5b60008060003373ffffffffffffffffffffffffffffffffffffffff1673ffffffffffffffffffffffffffffffffffffffff16815260200190815260200160002060020181905550600260009054906101000a900473ffffffffffffffffffffffffffffffffffffffff1673ffffffffffffffffffffffffffffffffffffffff166340c10f1933836040518363ffffffff1660e01b815260040161047a929190610d23565b600060405180830381600087803b15801561049457600080fd5b505af11580156104a8573d6000803e3d6000fd5b5050505050565b600360009054906101000a900473ffffffffffffffffffffffffffffffffffffffff1681565b600160009054906101000a900473ffffffffffffffffffffffffffffffffffffffff1681565b600560009054906101000a900473ffffffffffffffffffffffffffffffffffffffff1681565b600560009054906101000a900473ffffffffffffffffffffffffffffffffffffffff1673ffffffffffffffffffffffffffffffffffffffff163373ffffffffffffffffffffffffffffffffffffffff16146105b1576040517f08c379a00000000000000000000000000000000000000000000000000000000081526004016105a890610e04565b60405180910390fd5b8060048190555050565b600260009054906101000a900473ffffffffffffffffffffffffffffffffffffffff1681565b600080600160009054906101000a900473ffffffffffffffffffffffffffffffffffffffff1673ffffffffffffffffffffffffffffffffffffffff1633600360009054906101000a900473ffffffffffffffffffffffffffffffffffffffff168560405160240161065493929190610e24565b6040516020818303038152906040527f23b872dd000000000000000000000000000000000000000000000000000000007bffffffffffffffffffffffffffffffffffffffffffffffffffffffff19166020820180517bffffffffffffffffffffffffffffffffffffffffffffffffffffffff83818316178352505050506040516106de9190610ecc565b6000604051808303816000865af19150503d806000811461071b576040519150601f19603f3d011682016040523d82523d6000602084013e610720565b606091505b509150915081801561074e575060008151148061074d57508080602001905181019061074c9190610f1b565b5b5b61078d576040517f08c379a000000000000000000000000000000000000000000000000000000000815260040161078490610f94565b60405180910390fd5b60008060003373ffffffffffffffffffffffffffffffffffffffff1673ffffffffffffffffffffffffffffffffffffffff16815260200190815260200160002090506107d8336108fc565b838160000160008282546107ec9190610fb4565b925050819055506000816001015403610809574281600101819055505b50505050565b6000806000808473ffffffffffffffffffffffffffffffffffffffff1673ffffffffffffffffffffffffffffffffffffffff1681526020019081526020016000209050600081600001541480610869575060008160010154145b156108785760009150506108c7565b600081600101544261088a9190610cef565b90506000670de0b6b3a76400006004548385600001546108aa9190610fe8565b6108b49190610fe8565b6108be9190611059565b90508093505050505b919050565b60006020528060005260406000206000915090508060000154908060010154908060020154905083565b60045481565b60008060008373ffffffffffffffffffffffffffffffffffffffff1673ffffffffffffffffffffffffffffffffffffffff1681526020019081526020016000209050600081600001541480610955575060008160010154145b1561096057506109d0565b60008160010154426109729190610cef565b90506000670de0b6b3a76400006004548385600001546109929190610fe8565b61099c9190610fe8565b6109a69190611059565b9050808360020160008282546109bc9190610fb4565b925050819055504283600101819055505050505b50565b600080fd5b6000819050919050565b6109eb816109d8565b81146109f657600080fd5b50565b600081359050610a08816109e2565b92915050565b600060208284031215610a2457610a236109d3565b5b6000610a32848285016109f9565b91505092915050565b600073ffffffffffffffffffffffffffffffffffffffff82169050919050565b6000819050919050565b6000610a80610a7b610a7684610a3b565b610a5b565b610a3b565b9050919050565b6000610a9282610a65565b9050919050565b6000610aa482610a87565b9050919050565b610ab481610a99565b82525050565b6000602082019050610acf6000830184610aab565b92915050565b6000610ae082610a87565b9050919050565b610af081610ad5565b82525050565b6000602082019050610b0b6000830184610ae7565b92915050565b6000610b1c82610a3b565b9050919050565b610b2c81610b11565b82525050565b6000602082019050610b476000830184610b23565b92915050565b6000610b5882610a87565b9050919050565b610b6881610b4d565b82525050565b6000602082019050610b836000830184610b5f565b92915050565b610b9281610b11565b8114610b9d57600080fd5b50565b600081359050610baf81610b89565b92915050565b600060208284031215610bcb57610bca6109d3565b5b6000610bd984828501610ba0565b91505092915050565b610beb816109d8565b82525050565b6000602082019050610c066000830184610be2565b92915050565b6000606082019050610c216000830186610be2565b610c2e6020830185610be2565b610c3b6040830184610be2565b949350505050565b600082825260208201905092915050565b7f496e73756666696369656e74207374616b650000000000000000000000000000600082015250565b6000610c8a601283610c43565b9150610c9582610c54565b602082019050919050565b60006020820190508181036000830152610cb981610c7d565b9050919050565b7f4e487b7100000000000000000000000000000000000000000000000000000000600052601160045260246000fd5b6000610cfa826109d8565b9150610d05836109d8565b9250828203905081811115610d1d57610d1c610cc0565b5b92915050565b6000604082019050610d386000830185610b23565b610d456020830184610be2565b9392505050565b7f4e6f7468696e6720746f20636c61696d00000000000000000000000000000000600082015250565b6000610d82601083610c43565b9150610d8d82610d4c565b602082019050919050565b60006020820190508181036000830152610db181610d75565b9050919050565b7f4e6f7420746865206f776e657200000000000000000000000000000000000000600082015250565b6000610dee600d83610c43565b9150610df982610db8565b602082019050919050565b60006020820190508181036000830152610e1d81610de1565b9050919050565b6000606082019050610e396000830186610b23565b610e466020830185610aab565b610e536040830184610be2565b949350505050565b600081519050919050565b600081905092915050565b60005b83811015610e8f578082015181840152602081019050610e74565b60008484015250505050565b6000610ea682610e5b565b610eb08185610e66565b9350610ec0818560208601610e71565b80840191505092915050565b6000610ed88284610e9b565b915081905092915050565b60008115159050919050565b610ef881610ee3565b8114610f0357600080fd5b50565b600081519050610f1581610eef565b92915050565b600060208284031215610f3157610f306109d3565b5b6000610f3f84828501610f06565b91505092915050565b7f5472616e73666572206661696c65640000000000000000000000000000000000600082015250565b6000610f7e600f83610c43565b9150610f8982610f48565b602082019050919050565b60006020820190508181036000830152610fad81610f71565b9050919050565b6000610fbf826109d8565b9150610fca836109d8565b9250828201905080821115610fe257610fe1610cc0565b5b92915050565b6000610ff3826109d8565b9150610ffe836109d8565b925082820261100c816109d8565b9150828204841483151761102357611022610cc0565b5b5092915050565b7f4e487b7100000000000000000000000000000000000000000000000000000000600052601260045260246000fd5b6000611064826109d8565b915061106f836109d8565b92508261107f5761107e61102a565b5b82820490509291505056fea2646970667358221220fa5220dad59d3e04b98d7962150819d784a77f12d7e66dd247320eaacf1c238f64736f6c63430008140033",
  "linkReferences": {},
  "deployedLinkReferences": {}
}